{
  "_format": "hh-sol-artifact-1",
  "contractName": "Tasks",
  "sourceName": "contracts/Tasks.sol",
  "abi": [
    {
      "inputs": [],
      "stateMutability": "nonpayable",
      "type": "constructor"
    },
    {
      "anonymous": false,
      "inputs": [
        {
          "indexed": false,
          "internalType": "uint256",
          "name": "",
          "type": "uint256"
        }
      ],
      "name": "MemberRegistered",
      "type": "event"
    },
    {
      "anonymous": false,
      "inputs": [
        {
          "indexed": false,
          "internalType": "uint256",
          "name": "",
          "type": "uint256"
        }
      ],
      "name": "TaskCreated",
      "type": "event"
    },
    {
      "inputs": [
        {
          "internalType": "string",
          "name": "taskName",
          "type": "string"
        },
        {
          "internalType": "uint256",
          "name": "taskEndingTime",
          "type": "uint256"
        }
      ],
      "name": "createTask",
      "outputs": [],
      "stateMutability": "nonpayable",
      "type": "function"
    },
    {
      "inputs": [
        {
          "internalType": "uint256",
          "name": "taskId",
          "type": "uint256"
        }
      ],
      "name": "finalizeTask",
      "outputs": [],
      "stateMutability": "nonpayable",
      "type": "function"
    },
    {
      "inputs": [
        {
          "internalType": "uint256",
          "name": "index",
          "type": "uint256"
        }
      ],
      "name": "getTaskInfo",
      "outputs": [
        {
          "internalType": "address",
          "name": "",
          "type": "address"
        },
        {
          "internalType": "string",
          "name": "",
          "type": "string"
        },
        {
          "internalType": "uint256",
          "name": "",
          "type": "uint256"
        },
        {
          "internalType": "bool",
          "name": "",
          "type": "bool"
        },
        {
          "internalType": "bool",
          "name": "",
          "type": "bool"
        }
      ],
      "stateMutability": "view",
      "type": "function"
    },
    {
      "inputs": [],
      "name": "getTotalTasks",
      "outputs": [
        {
          "internalType": "uint256",
          "name": "",
          "type": "uint256"
        }
      ],
      "stateMutability": "view",
      "type": "function"
    },
    {
      "inputs": [
        {
          "internalType": "address",
          "name": "",
          "type": "address"
        }
      ],
      "name": "members",
      "outputs": [
        {
          "internalType": "bool",
          "name": "",
          "type": "bool"
        }
      ],
      "stateMutability": "view",
      "type": "function"
    },
    {
      "inputs": [],
      "name": "owner",
      "outputs": [
        {
          "internalType": "address",
          "name": "",
          "type": "address"
        }
      ],
      "stateMutability": "view",
      "type": "function"
    },
    {
      "inputs": [],
      "name": "registerMember",
      "outputs": [],
      "stateMutability": "nonpayable",
      "type": "function"
    },
    {
      "inputs": [
        {
          "internalType": "uint256",
          "name": "",
          "type": "uint256"
        }
      ],
      "name": "tasks",
      "outputs": [
        {
          "internalType": "address",
          "name": "taskOwner",
          "type": "address"
        },
        {
          "internalType": "string",
          "name": "name",
          "type": "string"
        },
        {
          "internalType": "uint256",
          "name": "endingTime",
          "type": "uint256"
        },
        {
          "internalType": "bool",
          "name": "approved",
          "type": "bool"
        },
        {
          "internalType": "bool",
          "name": "complete",
          "type": "bool"
        }
      ],
      "stateMutability": "view",
      "type": "function"
    },
    {
      "inputs": [],
      "name": "totalMembers",
      "outputs": [
        {
          "internalType": "uint256",
          "name": "",
          "type": "uint256"
        }
      ],
      "stateMutability": "view",
      "type": "function"
    }
  ],
  "bytecode": "0x608060405234801561001057600080fd5b5033600160006101000a81548173ffffffffffffffffffffffffffffffffffffffff021916908373ffffffffffffffffffffffffffffffffffffffff160217905550610ded806100616000396000f3fe608060405234801561001057600080fd5b50600436106100935760003560e01c806376e925591161006657806376e925591461010c57806388488c331461012a5780638d977672146101465780638da5cb5b1461017a578063d1a1b9991461019857610093565b806304fe2b341461009857806308ae4b0c146100b45780633c93b905146100e457806360f8dd7e14610102575b600080fd5b6100b260048036038101906100ad91906109b5565b6101cc565b005b6100ce60048036038101906100c9919061098c565b610388565b6040516100db9190610b0d565b60405180910390f35b6100ec6103a8565b6040516100f99190610b28565b60405180910390f35b61010a6103b4565b005b6101146104b8565b6040516101219190610b28565b60405180910390f35b610144600480360381019061013f9190610a09565b6104be565b005b610160600480360381019061015b9190610a09565b6105e3565b604051610171959493929190610ab3565b60405180910390f35b6101826106eb565b60405161018f9190610a98565b60405180910390f35b6101b260048036038101906101ad9190610a09565b610711565b6040516101c3959493929190610ab3565b60405180910390f35b33600260008273ffffffffffffffffffffffffffffffffffffffff1673ffffffffffffffffffffffffffffffffffffffff16815260200190815260200160002060009054906101000a900460ff1661022357600080fd5b60006040518060a001604052803373ffffffffffffffffffffffffffffffffffffffff168152602001858152602001848152602001600015158152602001600015158152509050600081908060018154018082558091505060019003906000526020600020906004020160009091909190915060008201518160000160006101000a81548173ffffffffffffffffffffffffffffffffffffffff021916908373ffffffffffffffffffffffffffffffffffffffff16021790555060208201518160010190805190602001906102f9929190610857565b506040820151816002015560608201518160030160006101000a81548160ff02191690831515021790555060808201518160030160016101000a81548160ff02191690831515021790555050507fba46948ae716559226cede7aac0175e8ddd11b7cb3ea0369c9f218ef908b87d560008054905060405161037a9190610b28565b60405180910390a150505050565b60026020528060005260406000206000915054906101000a900460ff1681565b60008080549050905090565b33600260008273ffffffffffffffffffffffffffffffffffffffff1673ffffffffffffffffffffffffffffffffffffffff16815260200190815260200160002060009054906101000a900460ff161561040c57600080fd5b6001600260003373ffffffffffffffffffffffffffffffffffffffff1673ffffffffffffffffffffffffffffffffffffffff16815260200190815260200160002060006101000a81548160ff0219169083151502179055506003600081548092919061047790610ca2565b91905055507f1384db26276f80d12cb38ed662a8ce91a3145826cd0a577b5241718f28fde5d66003546040516104ad9190610b28565b60405180910390a150565b60035481565b60011515600260003373ffffffffffffffffffffffffffffffffffffffff1673ffffffffffffffffffffffffffffffffffffffff16815260200190815260200160002060009054906101000a900460ff1615151461051b57600080fd5b6000808281548110610556577f4e487b7100000000000000000000000000000000000000000000000000000000600052603260045260246000fd5b906000526020600020906004020190508060000160009054906101000a900473ffffffffffffffffffffffffffffffffffffffff1673ffffffffffffffffffffffffffffffffffffffff163373ffffffffffffffffffffffffffffffffffffffff16146105c257600080fd5b60018160030160016101000a81548160ff0219169083151502179055505050565b600081815481106105f357600080fd5b90600052602060002090600402016000915090508060000160009054906101000a900473ffffffffffffffffffffffffffffffffffffffff169080600101805461063c90610c3f565b80601f016020809104026020016040519081016040528092919081815260200182805461066890610c3f565b80156106b55780601f1061068a576101008083540402835291602001916106b5565b820191906000526020600020905b81548152906001019060200180831161069857829003601f168201915b5050505050908060020154908060030160009054906101000a900460ff16908060030160019054906101000a900460ff16905085565b600160009054906101000a900473ffffffffffffffffffffffffffffffffffffffff1681565b6000606060008060008060008781548110610755577f4e487b7100000000000000000000000000000000000000000000000000000000600052603260045260246000fd5b906000526020600020906004020190508060000160009054906101000a900473ffffffffffffffffffffffffffffffffffffffff168160010182600201548360030160009054906101000a900460ff168460030160019054906101000a900460ff168380546107c390610c3f565b80601f01602080910402602001604051908101604052809291908181526020018280546107ef90610c3f565b801561083c5780601f106108115761010080835404028352916020019161083c565b820191906000526020600020905b81548152906001019060200180831161081f57829003601f168201915b50505050509350955095509550955095505091939590929450565b82805461086390610c3f565b90600052602060002090601f01602090048101928261088557600085556108cc565b82601f1061089e57805160ff19168380011785556108cc565b828001600101855582156108cc579182015b828111156108cb5782518255916020019190600101906108b0565b5b5090506108d991906108dd565b5090565b5b808211156108f65760008160009055506001016108de565b5090565b600061090d61090884610b68565b610b43565b90508281526020810184848401111561092557600080fd5b610930848285610bfd565b509392505050565b60008135905061094781610d89565b92915050565b600082601f83011261095e57600080fd5b813561096e8482602086016108fa565b91505092915050565b60008135905061098681610da0565b92915050565b60006020828403121561099e57600080fd5b60006109ac84828501610938565b91505092915050565b600080604083850312156109c857600080fd5b600083013567ffffffffffffffff8111156109e257600080fd5b6109ee8582860161094d565b92505060206109ff85828601610977565b9150509250929050565b600060208284031215610a1b57600080fd5b6000610a2984828501610977565b91505092915050565b610a3b81610bb5565b82525050565b610a4a81610bc7565b82525050565b6000610a5b82610b99565b610a658185610ba4565b9350610a75818560208601610c0c565b610a7e81610d78565b840191505092915050565b610a9281610bf3565b82525050565b6000602082019050610aad6000830184610a32565b92915050565b600060a082019050610ac86000830188610a32565b8181036020830152610ada8187610a50565b9050610ae96040830186610a89565b610af66060830185610a41565b610b036080830184610a41565b9695505050505050565b6000602082019050610b226000830184610a41565b92915050565b6000602082019050610b3d6000830184610a89565b92915050565b6000610b4d610b5e565b9050610b598282610c71565b919050565b6000604051905090565b600067ffffffffffffffff821115610b8357610b82610d49565b5b610b8c82610d78565b9050602081019050919050565b600081519050919050565b600082825260208201905092915050565b6000610bc082610bd3565b9050919050565b60008115159050919050565b600073ffffffffffffffffffffffffffffffffffffffff82169050919050565b6000819050919050565b82818337600083830152505050565b60005b83811015610c2a578082015181840152602081019050610c0f565b83811115610c39576000848401525b50505050565b60006002820490506001821680610c5757607f821691505b60208210811415610c6b57610c6a610d1a565b5b50919050565b610c7a82610d78565b810181811067ffffffffffffffff82111715610c9957610c98610d49565b5b80604052505050565b6000610cad82610bf3565b91507fffffffffffffffffffffffffffffffffffffffffffffffffffffffffffffffff821415610ce057610cdf610ceb565b5b600182019050919050565b7f4e487b7100000000000000000000000000000000000000000000000000000000600052601160045260246000fd5b7f4e487b7100000000000000000000000000000000000000000000000000000000600052602260045260246000fd5b7f4e487b7100000000000000000000000000000000000000000000000000000000600052604160045260246000fd5b6000601f19601f8301169050919050565b610d9281610bb5565b8114610d9d57600080fd5b50565b610da981610bf3565b8114610db457600080fd5b5056fea2646970667358221220dc25bd0b2b801aae081fff26331ceedd0f44164251160c364d1f4d8d65b5f0fe64736f6c63430008040033",
  "linkReferences": {},
  "deployedLinkReferences": {}
}